:10000000005000204D13000047130000491300006A
:100010004B1300004B1300004B13000000000000C6
:100020000000000000000000000000004B13000072
:100030004B130000000000004B1300004B130000A6
:100040009D0700004B1300004B1300004B130000F2
:100050005D0300005D0600004B1300004B13000021
:100060004B130000A91500004B1300004B130000B8
:100070004B1300004B1300004B1300004B13000008
:100080004B1300004B1300004B1300004B130000F8
:100090004B1300004B1300004B1300004B130000E8
:1000A0004B1300004B1300004B1300004B130000D8
:1000B0004B1300004B1300004B1300004B130000C8
:1000C0004B1300004B1300001FB5072876D8DFE85C
:1000D00000F0040C1A1E3F434B4F0022394B1A60AC
:1000E0000123394A1370394A138028230193354B71
:1000F000364A1B6801200093334BB2F900201B786D
:10010000334901F0F7F90220324901F0F3F90320F5
:1001100031490DF10F0201F017FA9DF80F30532B02
:100120000FD8422B11D9433B102B0ED8DFE803F038
:100130003C3E4438320D0D0D0D0D0D360D0D0D40AC
:100140004200633BDAB2102AEED9012000F088FEAB
:100150000420224901F0CEF905201C4A204901F073
:10016000F3F9012000F07CFE06201E4901F0C2F9DF
:10017000154C072022461A4901F0E6F92378013B85
:10018000182B02D9062000F06BFE012000F068FE5B
:1001900004B010BD042000F063FED6E70620FAE7A5
:1001A000114801F031F8D0E71048FAE71048F8E7B5
:1001B0001048F6E71048F4E71048F2E700F0E2FDD7
:1001C000E6E700BF5405002048000020500500204D
:1001D0009C290000C4290000882A0000152B00007B
:1001E000242B0000272B00008B2A00009B2A0000F4
:1001F000B62A0000D12A0000EE2A0000012B0000E0
:100200000146014800F0B2BE4D05000082B0ADF8D5
:100210000600BDF806309BB20BB902B0704704234C
:100220001A46013B9BB2002AFAD1BDF80630013BC9
:100230009BB2ADF80630ECE707B5ADF80600BDF8A7
:1002400006309BB213B903B05DF804FB40F2E7300F
:10025000FFF7DCFFBDF80630013B9BB2ADF806307E
:10026000EDE7000038B5C307044605D50A4BDA7838
:10027000012A84BF0122DA70084D20462B685B6991
:1002800098472B6820465B6B98470128F9D1024BB1
:10029000586804435C6038BD6C050020B80100104C
:1002A0000A4680B501460F4800F0AEFF72B6402501
:1002B0002F460D4E80240D49376034600B780B7843
:1002C000C8206FF307130B70FFF7B6FF084BC82069
:1002D0001D601C600B780B786FF307130B70FFF732
:1002E000ABFFE7E73B2B0000902002406C050020AD
:1002F000A020024010B50A4B1C880A4B18880A4BF4
:10030000001B84B21C8001F07DFD0122000C074B14
:1003100040EA014000EB84101860054B1A6010BDE4
:100320006A05002068050020000000201820094010
:1003300080022443002310B5064C236001F062FDC7
:10034000000C054B40EA0140403018600123236057
:1003500010BD00BFC00224432020094010B53B4B14
:10036000186800F00112C4031A6042D5384B1968AE
:10037000002953D00A88002A4ED0013A0A80002270
:100380005C6894B1218811B10022013921809C68F8
:100390005CB1218811B1002201392180D96821B1D5
:1003A0000B8813B10022013B0B802A4B19780909F5
:1003B00047D059784A1CD2B25A70D1B91A7812F083
:1003C000080F1A782CD0D10642BF4021224A116072
:1003D0001A78920642BF80211F4A11601A781A7853
:1003E0001A786FF3C3021A701A78520701D5C8221F
:1003F0005A70C3070FD50021184B194A19481960C4
:100400000388148811802344124A9BB20380137816
:1004100043F00203137010BD0122B1E70122C4E7CB
:10042000D40642BF4021104A11601A78910642BF9B
:1004300080210D4A11601A781A781A7842F0080261
:10044000D1E7002AD5D0094B1960D2E70420094032
:10045000780500206C050020902002408002244393
:100460000000002074050020A0200240C0022443A8
:10047000F8B500260E4B0F4F1E603D889DB1A0B110
:100480000D4B1C6801F0BEFC800D40EA8120C4F3D6
:100490008F1480B2241A2C1B3546084B3E801A88D4
:1004A0001444A4B21C802846F8BD01251D60FAE75B
:1004B0008002244300000020182009407405002019
:1004C00070B50F4E0F4D33680446DB6828469847D9
:1004D00064223368284662435E680B496023B04754
:1004E0000A4A0120136843F010031360536843F471
:1004F000407343F001035360054B1C8070BD00BF87
:10050000D001001000100040006CDC022C100040F4
:1005100002000020084A0949136843F010031360E1
:100520001222074B1A60074A136823F440431360F2
:10053000054B1888FFF7C4BF2C1000405805002059
:1005400034100040301000400200002001302DE93E
:10055000F8430D46144603286ED8DFE800F0531226
:10056000475AD9F80030013E05F8013B1EB1D8F8D2
:100570000030D806F5D5A6420AD0A41B2046BDE817
:10058000F88316462E4FDFF8CC80DFF8CC90EDE7ED
:100590003B6815205B699847D8F80030D90604D429
:1005A0003B6815201B699847E0E7264A937943F09A
:1005B00080036FF001049371E0E715F8013B013E01
:1005C000C9F800301EB1D8F800309A06F5D5A64219
:1005D000D3D13B6815205B699847D8F800309B065B
:1005E0000BD43B6815201B699847EBE71646144F60
:1005F000DFF86080DFF86090E4E7124A937943F017
:100600004003D6E70E4B15201B6800241B69984752
:10061000B4E7012A09D10B492888FFF751FF0028C8
:10062000ACD103200849FFF73BFE022A04D1074B57
:1006300001241B880B80A1E702200549F3E700BFD6
:10064000B0010010580500204A2B000002000020D5
:100650004E2B0000181000400010004040F2F272D3
:1006600030B5294B294C1A602268D50623D4284B73
:100670009A7910061FD59A7902F07F029A71254A5D
:10068000137843F002031370234B1A689AB1104693
:10069000002330F8101B01F00701994209DD50F8E2
:1006A0003350013315F5817FF7D102EBC3039B88EB
:1006B0001380D26AEAE72368990624D4144B9A7906
:1006C000520620D56FF480749A7902F0BF029A71B5
:1006D000104A137843F0020313700F4B1A6892B15B
:1006E0001046002330F8101B01F00701994208DD85
:1006F00050F833500133A542F8D102EBC3039B8875
:100700001380D26AEBE730BD44100040181000405F
:10071000580500206C0500200400002070B572B65A
:1007200001210C4E0C4D33880C4C1B0A01FA03F2CC
:100730002A60DA01738802F181721B0A9940DB0199
:1007400003F181732243234310602960186062B66D
:1007500070BD00BF342C0000E02002404800004281
:10076000F0B572B600220126094F0A4C0A49BB5C5B
:10077000013203F07F0306FA03F5DB0103F1817315
:100780000B43042A25601860F1D162B6F0BD00BFAA
:10079000302C0000E02002404800004270B5234C9D
:1007A000226812F4C04F1ED00020FFF7B7FF204B85
:1007B000204D1A6892B11046002330F8101B01F04A
:1007C0000701994208DD50F833600133AE42F8D199
:1007D00002EBC3039B881380D26AEBE7164A1378B7
:1007E00043F002031370236813F0F05F1DD0104B29
:1007F000124C186890B10146002331F8102B02F01A
:1008000007029A4208DD51F833500133A542F8D16E
:1008100000EBC3039B880380C06AEBE7FFF7A0FFF0
:10082000054A137843F00203137070BDE0200240C4
:1008300004000020342C00006C050020302C000047
:100840002DE9F047584C0420FFF70CFD23684FF4C6
:10085000A060DB69984723684FF4A0605B6A984703
:1008600023684FF4A060DB6A9847012300264F4CB1
:100870004F4FDFF87CC1DFF87CE1DFF84081DFF823
:100880003491236057F8045B0136C5F3C4429100EC
:1008900001F1804000F5012005EA0C0AC0F800A033
:1008A000280644BF41EA0E010B6003FA02F2690612
:1008B0004CBFC9F80020C8F80020112EE2D1402515
:1008C00080263C4B3C491D601E600B780B78C8208D
:1008D0006FF307130B70FFF7AFFC384BC8201D6098
:1008E0001E6001260B780B786FF307130B70FFF770
:1008F000A3FC334B334A1D60334B344D1E60344BE5
:1009000014201A602B681B69984700F08FFB2B6836
:1009100010201B6998470220FFF7A4FCAB684FF436
:100920000070DB699847AB684FF400705B6A9847CA
:10093000AB684FF40070DB6A98476022254B266055
:100940001A80FFF7E7FD00F0C1FD00F0C9FD01F0DE
:1009500099FF08281AD1204B1E60A3F58043043B61
:100960001E6003F5005324331B680020FFF748FC8A
:100970001A4A1520136843F070031360134B1B6869
:100980001B699847BDE8F047FFF7D4BC144800F056
:100990003BFC144800F038FC13491448C1F5984159
:1009A00089B200F031FCE0E7B801001028200860AF
:1009B000B82B0000902002406C050020A0200240CF
:1009C0002420094003000500C8022443B0010010A0
:1009D00000200940020000200C400940381000406F
:1009E000C3290000522B00008C0500209E2B000024
:1009F0003F7F077F001A44422DE9804883B0794B3E
:100A000000AF83F30888A3F204431A68764B9A4236
:100A100027D1764E00214FF6FF7000F0BBF9744AE3
:100A2000744B12681A601A68FAB9734C72B6734D37
:100A30002B78C3F3400298077A6000F1CD80704AAA
:100A4000136801331360EA78012AD3B217D0022B5E
:100A500031D0002B40F0958030BF62B600BF00BFA0
:100A6000E4E70B206749FFF71BFC516829B11088A8
:100A7000040702D100098847CCE7D26AD2E7624A6C
:100A80002020136843F001031360D2F8983043F03C
:100A90000303C2F898305D4B1B689B699847336825
:100AA000236843F00403236030BF236823F004036A
:100AB00023603368D1E74FF001087A68544BDFF8C0
:100AC00088B11A607B68DFF844A1CBF80030336846
:100AD000504BDFF87891C3F800806868DAF800308E
:100AE00040F020009B6998474B4B0321C3F80080DE
:100AF000D9F80030494823F00303C9F80030484BC7
:100B00001A6852689047786801F07CFD3268226864
:100B100042F00402226030BF2268414B22F00402FE
:100B200022601B6841465B683C489847D9F8003012
:100B30003C4A43F00303C9F80030CBF80080136847
:100B40009906FCD5DAF8003068685B6998472F4D44
:100B50002A4B58682B685B6B98470128F8D12D4BBE
:100B60002D4A186000231360294B1860336801F088
:100B700059FEFFF7CFFC2C4A136843F07003136053
:100B80006BE72A4B01201B68DB689847284A2949F4
:100B9000136823F001031360274B1A6822F4807254
:100BA0001A604FF03F320A604A6032687A681A6011
:100BB0007A68224B1A600122214B1A603368194A65
:100BC00013689B06FCD401221E4B37201A600F4B82
:100BD0001B689B69984763E72B786FF341032B7081
:100BE00062B617E70050002079B778A72C2009409B
:100BF000040000208805002010ED00E06C050020B6
:100C000060050020B52B00008C210840B8010010C1
:100C10000C40094028200860800104430040034044
:100C2000D80100101410094038100040A001001035
:100C300010100940003009404010094020042243B0
:100C4000181009408801044300022243242208406E
:100C500010B5114B1149124A43F8041B9342FBD1C2
:100C6000104CFFF7EDFD00F06DFB236829210020FB
:100C70001B689847236820211B68012098470021A2
:100C8000094800F09BFA094B00211860102000F081
:100C900037F962B6FFF7B0FEFC4B002079B778A7B2
:100CA000BC4F002084010010C9000000880500200E
:100CB00070B50D4B46681A68AAB1144634F8101B7B
:100CC000002301F0070101E0B54206D0994208DD9A
:100CD00054F833500133A842F6D102EBC3039B888A
:100CE0001380D26AE8E770BD040000201D4A30B5C9
:100CF000144613683BB923681A4A53BB03601A4B66
:100D00001060436030BD53E90115013103EB8101EF
:100D100088420BD1156050F8040C53F8041C0144B0
:100D20001846013143F8041C1B68E3E750F8041C23
:100D3000013100EB81018B4203BF156050F8041CA8
:100D400053F8045C1A4602BF4919013140F8041CEB
:100D5000EAE753F8044C50F8041C8C42CED21A46F1
:100D60001B68CAE718000020AFDEAFDE034A136835
:100D70001B07FCD4024BC0B218607047181000402B
:100D800000100040072008B50149FFF789FA00BFAD
:100D9000FC2B0000F8B504460846FFF769FB002865
:100DA00054D12B4B2B4D19882A8889B28A422A4963
:100DB00003D8088880B282420DD21E880888B6B255
:100DC00080B2864236D2188880B2824203D908881F
:100DD00080B282422ED3214A106818B91888044480
:100DE0002C802CE0068832071BD51F884288BFB2B2
:100DF000BA4203D80F88BFB2BA420FD2B3F800C0CC
:100E00000F881FFA8CFCBFB2BC450CD21F88BFB242
:100E1000BA4203D90F88BFB2BA4204D326F00F06F4
:100E20000680C06AD9E71E88921B92B2944228BFFE
:100E30001446F6E71888121A92B29442CED91B884B
:100E40009BB20B80BDE8F840FFF754BAF8BD00BF75
:100E500074050020680500206A05002004000020B9
:100E600008B5034B00011B681880FFF7C5FD00BFE4
:100E70008805002010B50A4B1C68238813F0040F66
:100E800003F0070203D005200649FFF709FA04EB37
:100E9000C2020901013391811061238010BD00BF9E
:100EA00088050020022C000030B50B4B1A6892B167
:100EB0001446002334F8101B01F00701994208DDA5
:100EC00054F8335001338542F8D102EBC3039B88B9
:100ED0001380D26AEBE730BD0400002010B5044651
:100EE000064B1B680BB91C4604E0A34204D1204604
:100EF000FFF7C0FF204610BDDB6AF3E704000020C7
:100F000038B504460A4D2A68138803F0070343EAFC
:100F1000011313800121FFF73DFF064B18882B6852
:100F200004445C802A68138843F00803138038BDAA
:100F3000880500206A050020034610B9054B186893
:100F40007047054A106800B9704742689A42FBD062
:100F5000C06AF8E78805002004000020034600204E
:100F60001A5C02B970470130FAE7000008B519B100
:100F700003200549FFF794F9044B1A6812B10420C5
:100F80000149F7E7186008BD052C000008000020A3
:100F90002DE9F843044616461D46BDF8208021B9C8
:100FA000DFF88490D9F800301BB901201D49FFF704
:100FB00077F9B8F1000F28D04246294630469847C5
:100FC000002823DA411C4FF6FF7308D19C421CD045
:100FD0002146A6F58170FFF74DFFFFF70DFD821C3E
:100FE00016D19C42D9F800900AD02146A6F581700E
:100FF000FFF740FF424629464FF0FF30C847ECE775
:10100000424629464FF0FF30C8470020BDE8F8832C
:101010009C42FAD0C0F57F40FE30214680B2FFF7F7
:101020006FFFDAE70A2C0000080000200D4A08B51F
:10103000C2F1005303F598439B08591EFF2903D8BA
:1010400004200949FFF72CF90849101D0860002009
:101050000749023B1360C2E90101064A1360064AD0
:10106000136008BD8C0500200D2C00001800002026
:10107000AFDEAFDE0C0000201400002008B5C8B1C0
:1010800050F8043C002B03DB06200B49FFF708F95E
:101090000A4903F100430A6840F8043C13440B601A
:1010A000FFF724FE0648037823B1FFF7FDFE03781F
:1010B000013B037008BD00BF122C00000C00002093
:1010C0001000002010B508B90F4B186800220F4B14
:1010D0001C681CB903200E49FFF7E2F88442E16A5C
:1010E0000ED15AB919602046FFF7E2FDFFF7C6FF9F
:1010F000054B1B68A34206D1FFF77EFCD162F2E7E5
:1011000022460C46E5E710BD8805002004000020BB
:10111000172C0000072898BF022038B5214B88BF44
:1011200003301C68204988BF80084CB91F4A537897
:10113000FF2B01D00133537000221D4B1A602FE0AA
:1011400062688A4203D006201A49FFF7A9F854E9D9
:101150000152854202D223461446E6E71A6054F84B
:10116000043C1B1A082B09D944F8040C013004EB89
:101170008000013B40F8043CFFF7B8FD00220B4B18
:101180000D495A7054F8042C0B689B1A0B600849DF
:1011900042F00042086844F8042C834238BF0B60D8
:1011A000204638BD18000020AFDEAFDE1000002062
:1011B000140000201B2C00000C00002038B5054650
:1011C00030200C46FFF7A6FF002338B1074A038002
:1011D000C3621368C0E901540BB9106038BD1A46E8
:1011E000DB6A002BFBD1D062F8E700BF04000020CF
:1011F000044A014613780348FF2B1CBF01331370C8
:10120000FFF738BE100000200FB42DE9F7430AABFA
:1012100053F8044B15200193464B0A271B68DFF84F
:101220001C815B699847207898B90D20FFF79EFDD7
:101230000A20FFF79BFD404A13681B07FCD43D4B77
:1012400015201B681B69984703B0BDE8F04304B044
:101250007047252804F1010669D1019B627853F893
:10126000041B6C2A08BFA61C019333780CBF2025F1
:101270001025752B4ED00AD8642B1CD0732B52D05E
:101280002520FFF773FD3078FFF770FD10E0782B15
:10129000F6D10024DFF8A89004342B1B21FA03F3C5
:1012A00003F00F0319F80300FFF760FDA542F3DC1C
:1012B00001363446B7E76B1E21FA03F3DA0709D586
:1012C0002D20FFF753FD102D04BF6FEA01416FEA97
:1012D0001141494242F21074102D18BF4446B1FB2F
:1012E000F4F5ADB235B9012C04D0B4FBF7F4F6E750
:1012F000124CF4E705F1300080B2FFF737FD092CFE
:10130000B4FBF7F304FB1511D2D9B1FBF3F51C467E
:10131000ADB2EFE7102DEBD142F2107489B2DEE7E7
:10132000FFF724FD013108780028F9D1C0E7FFF765
:101330001DFDBEE7B00100101810004000CA9A3B26
:10134000202C00007047FEE7FEE7FEE708B500F03E
:101350001BFE0C4B0C4A0D498B420DD30C480D491A
:101360004FF000028842B8BF40F8042BFADBFFF7C9
:101370006FFCFFF7E9FF08BD52F8040B43F8040BBC
:10138000EAE700BF00000020382C00000000002029
:10139000000000208C050020082300204FF480620C
:1013A00070B50749074D084C2E684000F605C0B2DD
:1013B00048BF40F00100013B22600A60F4D170BDDB
:1013C000A0200240C02002409020024030B50823F7
:1013D0004FF400754FF48061064C074A10F0800FFF
:1013E00014BF256015604000013B2160C0B2116050
:1013F000F4D130BD90200240A0200240012310B55E
:10140000034C2360FFF7E2FF0023236010BD00BF01
:10141000501A44422DE9F04104460D460127DFF8F9
:1014200044800F4E98F800304BB105203760FFF72D
:10143000CDFFFFF7B1FF00233360C30701D4BDE840
:10144000F0814FF6FF739C4203D10120FEF7F4FEBA
:10145000E8E721462846FFF753FDFFF7CDFA00BF26
:10146000501A44421C000020F8B50C4D2F7847B1AB
:1014700001214FF6FF70FFF7CDFF0022084B1A70D5
:10148000F8BD0124074E20463460FEF7BFFE20461B
:101490003760FEF7BBFE02232B70EEE71C00002036
:1014A0001D000020501A444210B5074C2378022B2F
:1014B00009D101214FF6FF70FFF7ACFFB920FFF70C
:1014C0009DFF0023237010BD1C00002008B5FFF70E
:1014D000CBFF0122014B00201A7008BD1C00002028
:1014E000034B1A781AB102221A70FFF7DDBF70475A
:1014F0001C0000200EB477B504461248FFF71CFD0F
:10150000064620B12146FFF7E9FCFFF775FA08AA65
:101510000799019200F06EFA054618B92046FFF7C8
:1015200067FEF2E701460748FFF748FE18B928466C
:10153000FFF7A4FDF2E7304603B0BDE8704003B00A
:10154000704700BF191600000EB433B50599044664
:1015500021B3134D286888B91248FFF7EDFC48B94C
:1015600001461048FFF72AFE20B92046FFF740FE4B
:10157000FFF742FA2146FFF7B1FCF9E706AA01920C
:1015800000F060FA04462868FFF778FD00232B601E
:10159000204602B0BDE8304003B070470C46F7E784
:1015A000340000208916000030B5154A1368002B5E
:1015B000BFBF14490B7863F07F030B7000211160EB
:1015C0001368002BFBD1104A104C11681360104AAD
:1015D00024681168084630F8102B02F007029A427E
:1015E00008DD50F833500133A542F8D101EBC303B5
:1015F0009B880B80074A137843F00203137030BDB9
:101600001010044024000020141004402800002082
:10161000200000206C050020F7B5184B1B689D6862
:1016200030B10A280DD003B0BDE8F040FFF7AABBE7
:10163000134B144C1D602B78E3B12846FFF78EFC4A
:1016400020600F4E0F4F3B8801220093002133682A
:101650000A20FFF79DFC33683C680344241A33607A
:101660003C60002CEFD12846FFF708FD2046FFF72D
:1016700029FDE8E76B7803332360E2E78805002063
:10168000300000202C000020F7B5424D2A689468F5
:1016900003287AD8DFE800F00218485D3E4B1B684B
:1016A00013B10020FFF70EFD4020FFF733FD3B4B49
:1016B0000446186018B9FFF79BFDFFF79DF93F221C
:1016C0002B689860364B1A6001200022334D009041
:1016D0002B681146FFF75CFC2B68A3420DD12378E1
:1016E00023B9631C02202B60FFF7BAFB2B681B7821
:1016F0001F2B02D80120FFF7B3FB2B681A780A2AA8
:1017000001D00D2A05D100201870234B1C60FFF773
:10171000D9FC23490B6823B12A68013B01322A60B6
:101720000B600120FFF79CFB012300221B4D00935F
:1017300011462B680220FFF72BFC194803689A1EFC
:101740002B6813F8011B01319142D4BF0160026084
:101750002B600022124F114D3B88114600932B68DD
:101760000320FFF715FC3B680646181A386018B9C5
:10177000094B1C60FFF7A6FC286830442860032052
:1017800003B0BDE8F040FFF76BBB03B0BDE8F0402D
:10179000FFF7F8BA88050020340000203C00002044
:1017A00038000020DCF8002032B1BCF80630BCF86C
:1017B0000410994288BFD054BCF806300133ACF80D
:1017C000063070472DE9FF471C460CAB03930023FE
:1017D0000A26864F0190ADF80810ADF80A3092F84D
:1017E0000090B9F15C0F18D192F80190951C0DF1A1
:1017F000040CB9F1000F0BD15C20FFF7D3FF484672
:101800000DF1040CFFF7CEFFB9F1000F03D127E073
:101810004846FFF7C7FF2A46E1E7B9F1250F40F038
:10182000E28092F80180951CB8F1730F00F0CD8032
:101830001BD8B8F1640F33D0B8F16C0F67D0B8F192
:10184000630F00F0BC8025200DF1040CFFF7AAFF08
:1018500040460DF1040CFFF7A5FFB8F1000FDAD1F7
:10186000BDF80A0004B0BDE8F087B8F1750F17D0D5
:10187000B8F1780FE7D14FF00C0854F8043B1FFA89
:1018800083F949FA08F303F00F03F85C0DF1040C37
:10189000FFF788FFB8F1000FBDD0A8F10408F0E70A
:1018A00054F8043BB8F1640F1FFA83F90AD11B0402
:1018B00008D52D200DF1040CFFF774FFC9F10009C4
:1018C0001FFA89F9052342F21078B9FBF8F010F0FD
:1018D000FF0003D1013B17D14FF001081FFA80FA36
:1018E0000DF1040C3030FFF75DFFB8FBF6F308FB99
:1018F0001A99B8F1090F1FFA89F99BB28BD9B9FB74
:10190000F3F09846C0B2E9E7B8FBF6F8DDE7937864
:10191000642B01D0752B32D1642B54F804AB02F147
:10192000030509D1BAF1000F06DA2D200DF1040CE0
:10193000FFF738FFCAF1000A0A23DFF8B480BAFBC8
:10194000F8F919F0FF0903D1013B15D14FF0010857
:101950000DF1040C09F13000FFF724FFB8F1090F75
:10196000B8FBF6F308FB19AA7FF655AFBAFBF3F9FB
:1019700098465FFA89F9EBE7B8FBF6F8DFE7782BD2
:1019800014D14FF01C0854F8049BD51C29FA08F315
:1019900003F00F03F85C0DF1040CFFF703FFB8F13F
:1019A000000F3FF438AFA8F10408EFE748460DF107
:1019B000040CFFF7F7FE40460DF1040C29E754F83C
:1019C000040B0DF1040C80B223E754F8043B03F13F
:1019D000FF3818F8010F00283FF41DAF0DF1040C7B
:1019E000FFF7E0FEF5E7551C09E700BF202C0000DB
:1019F00000CA9A3B2DE9F0410E461746044640B115
:101A000013460A464FF6FF71FFF7DCFE2046BDE89D
:101A1000F0810846FFF7A2FA00F11105ADB22846A1
:101A2000FFF778FB04460028F0D03B4632462946B3
:101A3000FFF7C8FE85428046E8D22046FFF71EFB2E
:101A40004546ECE703462DE9F043002800F0B58158
:101A5000002900F0B48100240A272546DFF870C36E
:101A60000E4611F8010B70B12528F9D17078B11C20
:101A70006C2800F0E18009D8632800F08481642894
:101A800043D00028ECD12046BDE8F083752874D0FF
:101A9000782800F098807328E2D118781E46A0F1CB
:101AA000090E5FFA8EFEBEF1170F984603F101038F
:101AB00040F273810028E6D02C2852F804EB04F1A0
:101AC00001040ED0464618F8013BA3F10900012895
:101AD00007D90D2B05D02C2B03D013F0DF0F40F0CE
:101AE000638196F800803346A8F10900C0B2172838
:101AF00006F1010640F25B81B8F12C0F08BF3346B6
:101B00008EF80050ACE7002EBDD09E4613F8016B56
:101B1000A6F13000092823D92D2E01D02B2EF2D189
:101B200018789E4630380928EFD8A6F12D09D9F14A
:101B3000000848EB090852F8046B013435809EF820
:101B400000007346A0F13009B9F1090F0EF1010E42
:101B500009D9B8F1000F83D13088404230807FE747
:101B60004FF00008E7E7338803EB8303C0EB430043
:101B700030303080E3E7002885D018781E46A0F189
:101B8000300EBEF1090F03F10103F4D852F804EB53
:101B90000134AEF8005030783346A0F13008B8F187
:101BA000090F06F101063FF65BAFBEF8003003EB0C
:101BB000830300EB43003038AEF80000EBE7BEF1E2
:101BC000000F3FF460AF93F800E01E46AEF1300026
:101BD000092803F1010304D92EF02000413805281B
:101BE000EDD852F804EB0134AEF8005006F10508C8
:101BF00096F800903346A9F13000C0B2092806F1EA
:101C0000010640F2DE8029F02000413805283FF629
:101C100027AF46453FF424AFA9F16103052B94BFDC
:101C2000A9F15700A9F13700C0B2BEF8003040EA70
:101C30000310AEF80000DBE7B078F11C75287DD00A
:101C400031D800283FF41FAF64287FF409AF9846CD
:101C500013F8016BA6F13000092862D92D2E01D0AE
:101C60002B2E5BD11878984630380928EFD82D3EB6
:101C70007042704152F804EB0134CEF8005098F8ED
:101C800000604346303E5FFA86F9B9F1090F08F16A
:101C9000010848D900287FF4E3AEDEF80000404296
:101CA000CEF80000DCE678287FF4DAAE93F800E0A6
:101CB0001E46AEF13000092803F1010304D92EF0CD
:101CC0002000413805285AD852F804EB0134CEF8E8
:101CD000005006F1090896F800903346A9F130004B
:101CE000C0B2092806F101066FD929F02000413859
:101CF00005283FF6B5AE46453FF4B2AEA9F1610303
:101D0000052B94BFA9F15700A9F13700C0B2DEF846
:101D1000003040EA0310CEF80000DCE7002E96D138
:101D2000B1E60020A6E7DEF80030B6B27B439E1B8A
:101D3000CEF80060A3E700283FF4A5AE18781E4651
:101D4000A0F1300EBEF1090F03F10103F3D852F8F0
:101D500004EB0134CEF800503078334630385FFA67
:101D600080F8B8F1090F06F101063FF679AEDEF80A
:101D7000003080B207FB0300CEF80000ECE7BEF1B4
:101D8000000F93D17FE613F8010B00283FF47BAEE0
:101D900052F8046B0134307062E62CFA0EFE1EF02D
:101DA000010F7FF47AAE87E60EF8013B8AE62CFA43
:101DB00000F0C0073FF595AEA2E6044663E60C4688
:101DC00061E646457FF431AF4AE646459FD147E696
:101DD00013008000084B1868084B1978084B1A68E4
:101DE00040F31003A2F5407248B25043A3EB201019
:101DF00080300012704700BF305009400C13005073
:101E000028500940034B04491A6808681968914230
:101E1000F8D17047082009400C200940EFF31080EA
:101E200072B67047EFF3108062B6704773B50C4618
:101E3000C107054609D5124BA2B21B6800210092CA
:101E40005E68104801220B46B047AA0709D50C4B23
:101E5000A2B21B6800925E680A4800210222012398
:101E6000B0476B0709D5064BA4B21B6800945C68A9
:101E7000044800210C220223A04702B070BD00BF1D
:101E8000A401001000A00C4010B5084B04281B68EA
:101E90004FF03401DC6807BF4FF0C0421D234FF004
:101EA00080521C230248A04710BD00BFA4010010AF
:101EB00000A00C4038B50546264B01221A60264B7F
:101EC0001B68002BFBD0254BC0221A60244B1B68DB
:101ED0009B075FBF234B244A1B68C3F303435CBFCC
:101EE00043F0F0031370214B00221A60204B1C6852
:101EF000204600F0D9F82846214600F00DFA40F2BD
:101F00001D221C4B1B689BB2934214D81A4A1368BB
:101F10001268C3F30363C2F3034203B1013B911F91
:101F2000012986BF023202F00F02072243EA0213A0
:101F3000124ADBB21370204600F0BCFA104B0220AC
:101F40001B68DB689847054B40221A600D4B012245
:101F50001A6038BD101009409402224300600C4002
:101F6000B03F0050AC3F005056620840401009405E
:101F7000B43F005014130050BC12005002600840DF
:101F8000A00100109404604210B51F4B1C68631C34
:101F900008BF002400F0DEFC1C4B00221A601C4A23
:101FA000012313601B4A136000F03EFA1A4B1B68B2
:101FB00023B11A4B20461B68FFF77CFF184B002209
:101FC0001A60184A136823F07F6323F4702343F0E8
:101FD0009C7343F48033136002F5BB2202F2BC729F
:101FE0001368C3F30133012B01BF136823F040735F
:101FF00023F4403343F4003104BF116013600A4BF3
:102000001B68002BFBD110BD1C13005084046042E0
:102010005C600C40082204438001284300012043F7
:102020008C210840482003400C00684230B5194B11
:102030001A68194BC2F304621B78152A03F01F03B8
:1020400088BF203A152B88BF203B934220D01349EC
:10205000002008600846D11A022905DC6FF001044F
:10206000A142B8BF214600E002210B440C490D4DAE
:102070000C6803F01F0444F4F8542C8093424FF092
:1020800001040C60E7D10B680C600B6804600B68FE
:1020900030BD00BF881300500662084098002043FE
:1020A0002C2009406C62084000F04073B3F1807F3F
:1020B00010B504460FD14FF6D8011E4A8023137085
:1020C000A2F8411002F8103CFFF7B0FF1A4B1B6852
:1020D000C3F3042303E0194B1B68C3F30463152BFC
:1020E00088BF203B03EB24730133152B05DC6FF015
:1020F00009029342B8BF134600E01523104A03F0CB
:102100001F0343F4F85313800E4B1B6813F00203B4
:102110000ABF0D4A44F040641360C4F3C0630B4A25
:1021200083F001031360C4F38064094B84F001045D
:102130001C6010BD2562084088130050B812005082
:102140006E6208400000094094042A4300002043C6
:1021500008002043154B81031B68C3F38362C3F35C
:102160008F231FD440F30720002819DA5B0805D11C
:10217000520806BF01231A464FF6FF730130F3E7FA
:102180005B0043F00103B3F5803F08D3520042F0F7
:1021900001020F2A86BF4FF6FF730F220123013879
:1021A0000028EDD143EA0240704700BF50130050B1
:1021B000044A13681068C3F3870300F0030043EA7E
:1021C0000020704750130050024B186800F0FC309C
:1021D000704700BF74130050034B186820F07F4015
:1021E00020F44030704700BF7013005070B5154B9D
:1021F00015491C680968C4F3035211F00105C4F3C2
:10220000034313D11149096841F30326B21803D4DB
:102210000F2AA8BF0F2200E02A4641F30331CB1852
:1022200003D40F2BA8BF0F2300E00023A1B2212865
:1022300041EA025242EA034384BF04F0804423434C
:10224000184670BD78130050B03F0050AC3F0050AE
:102250001F2883BF024B1868C0F30150002070474D
:1022600098130050212883BF024B1868C0F30070F8
:10227000012070478C130050212883BF024B18683F
:10228000C0F34070012070478C1300501F2881BF9D
:10229000074B1B68C3F30260800081BFC3F3C162B8
:1022A00040EA0220C3F38153184398BF00207047CF
:1022B00098130050024B1868C0F3C140704700BF2C
:1022C0008C1300501F2881BF074B1B68C3F30510F8
:1022D000C3F3892281BF00041B0340EA82509BB2F2
:1022E0008CBF1843014870479813005000803F404E
:1022F000212883BF024B1868C0F3C06000207047DC
:102300008C130050212883BF024B1868C0F345503E
:10231000002070478C13005073B505460846FFF740
:1023200019FF394C02461821204600F033FBFFF715
:102330003FFF364B80B21B6800905E6820462C2120
:1023400040F2FF320023B047314B20461A681C216F
:10235000C2F30D0200F01EFBFFF736FF1421024608
:10236000204600F017FBFFF737FF102102462046FA
:1023700000F010FB2846FFF739FF0C2102462046EB
:1023800000F008FB2846FFF76DFF4000214E40F0AB
:102390002000C0B230702846FFF76EFF40F01000FA
:1023A000C0B230702846FFF771FF28210246204650
:1023B00000F0F0FA2846FFF74BFF4000164B40F0C4
:1023C0006000C0B218702846FFF792FFC000134BA0
:1023D00060F07F00C0B218702846FFF793FF6FEAE5
:1023E00000606FEA90500E4B80B218802846FFF7CD
:1023F00069FF08210246204600F0CCFA094B4FF451
:1024000080021A6002B070BD00A00C40A401001050
:102410007C13005049A10C404CA10C4041A10C4040
:10242000DCA10C4040A00C4030B5144B1B68002BC5
:10243000FBD1134A13491368096823F0005323F0B2
:10244000070311F0040F144643F0005303D043F088
:102450000503136030BD0C4943F004000D68AD075F
:1024600009D043F0070313600B6803F00303032B49
:10247000FAD1206030BD106030BD00BF0C00684252
:1024800004400340B03F005000400340074B82B27D
:10249000C0F307401A605860012208331A60044AEA
:1024A0001268002AFBD000221A6070473C600C4082
:1024B00084088C43C0F38143012B10B5044602D03D
:1024C000022B2FD02AE0424B1B689A0326D4414AA4
:1024D0004FF4804111604049C3F303300A6822F091
:1024E0008F020243C3F3004042EAC0120A6051F86F
:1024F000012CC3F3032022F00F02024351F8010C18
:1025000041F8012C51F8022C03F0E70322F0E70216
:10251000134351F8022C41F8023C03E02D4B4FF0DD
:1025200000421A602D4B1B681B075EBF2C4B4022DC
:102530001A602C4B4FF400721A60FFF7BBFE2A4B57
:1025400040F03000C0B21870C4F3815001280BD0A5
:1025500002D3022826D028E004200121FFF766FCE0
:102560002248FFF793FF24E0FFF78EFC0446042087
:102570002146FFF75BFC0420FFF786FCA042FAD15E
:102580001B4B1C6824F07F40FFF780FF194B4FF076
:1025900060221B68200E1B68072198470D4B4FF4E3
:1025A00080621A600420032101E004200221FFF769
:1025B0003DFC114B114A1B6803F03F03137047F6B3
:1025C00018020F4B1A80A3F56433443B1B6810BDFF
:1025D0008C13005040A00C400C600840B03F0050ED
:1025E00068A00C4080A00C4008A10C40BD378600BC
:1025F000A83F0050B40100106C1300500BB00C4009
:1026000070B00C402DE9F74F774B07461B68774EAB
:1026100013F0020F04D00823B371754A754BDFE045
:10262000FFF7D8FB744B1D682A17AC0202F10101B9
:1026300008D4C0F13E03DB10082BA8BF0823994241
:10264000B8BF194605F04073B3F1807F0AD16B4BD8
:102650001A681B68C2F30422152A88BF203AC3F304
:1026600004630AE0664B1A68664BC2F304621B6897
:10267000152A88BF203AC3F30443152B0A4488BFA8
:10268000203B152A05DC6FF009018A42B8BF0A46D3
:1026900000E015225C4C02F01F0141F4F85121804A
:1026A0005A49096811F0030418BF0124490748BFBB
:1026B00044F002040FB144F0040496F90710411AE3
:1026C000042903DC494989798C426FD0B0F10F01AC
:1026D000019104F00101DFF844A104F0040904F0C1
:1026E00002080F462AD4019901EB01114FEA212E6D
:1026F000BEF1070F019101D804D101E04FF0070EA0
:10270000062100E07146DFF818B101315AF821C006
:102710005BF82110C1EB0C0C5FFA8CF1B9F1000FE2
:1027200002D0CCF3072B5944B8F1000F02D0CCF300
:10273000074B59442FB101EB1C6102E04FF0000E32
:1027400071465AF82EA05FFA8AFCB9F1000F02D048
:10275000CAF30729CC44B8F1000F02D0CAF30748E6
:10276000C4440FB10CEB1A6C9B1A012BB8BF0123A8
:10277000019F34225343A7EB0E277943EDB26B43FD
:1027800080310CEB1121B3FBF1F14FF6FF7C614579
:1027900028BF61467F28B18005DC6FF07F03984237
:1027A000B8BF184600E07F20F071B471184B0021CB
:1027B0001B683360B3881E2B9EBF0C4A1F23938077
:1027C000B3F5007F02D35B080131F9E7114A0F3BF3
:1027D0000A431B0942EAC303064A13600E4B002258
:1027E0001A6003B0BDE8F08F0000094040000020EF
:1027F000FDFDA40030100940B43F00508813005084
:10280000B81200503C1100506E620840242208406B
:102810000820094000E7A480341009409C130050B0
:102820009813005010B5144B1C68A4B214B3FFF7F2
:10283000D1FA124B93F90720904205DA6FF07F022C
:102840009042B8BF1046D8719A880C49944210D370
:102850000B4B08681B68A41A02331B1A1F2B28BFD6
:102860001F235B08DC4014444FF6FF72944228BFDC
:1028700014468C8010BD00BF341009404000002079
:1028800008200940044B1A6812045ABF1868C0F3A4
:1028900042000820704700BF040009404BF69A121E
:1028A000104B1868C0F30F30904206D11B681B0F05
:1028B0000B2B0CBF0420002011E04BF6BE139842F6
:1028C0000AD04BF64133984208D04BF62033984259
:1028D00014BFFF20022002E0012000E0032040B2EC
:1028E000704700BF1813005038B5194B1D68A3F589
:1028F0001E7318682D0FC4B2802C28BF0024FFF768
:10290000CDFF042821D8DFE800F003131B1B1C00B7
:10291000013D072D19D8DFE805F011180418181823
:102920000608142012E0152010E004F116000AE059
:1029300025B1022D09D104F1140004E00A2005E0BC
:102940001DB904F10A00C0B200E0FF2040B238BD5A
:102950001813005008B5FFF7A1FF012803D1FFF7B6
:10296000C3FF132800DCFEE708BD000038B50446AD
:102970000D46FFF753FA064B1A68002AFBD00122D6
:1029800025601A6018B9BDE83840FFF74BBA38BD6A
:1029900000800C4008441146FFF7E8BF0D0A47725B
:1029A0006F75702025642044657669636520232552
:1029B00064202825642F2564207265636F72647318
:1029C000290D0A00284729726F75702049440D0AA5
:1029D000284E296577206465766963652049440D32
:1029E0000A284629696E64206E65696768626F729D
:1029F000730D0A2843297265617465207265636FDF
:102A00007264206F6E206E65696768626F720D0A6E
:102A1000284429656C657465207265636F72642053
:102A20006F6E206E65696768626F720D0A285229A1
:102A300065747269657665207265636F726420667D
:102A4000726F6D206E65696768626F720D0A285338
:102A500029686F77206C6F63616C207265636F7299
:102A600064730D0A52286529736574206C6F636165
:102A70006C2073746F726167650D0A0D0A53656C83
:102A8000656374696F6E3A0025630046696E642061
:102A90006E65696768626F75727300437265617411
:102AA00065205265636F7264206F6E204E656967A2
:102AB00068626F75720044656C6574652052656369
:102AC0006F7264206F6E204E65696768626F757201
:102AD000005265747269657665205265636F726431
:102AE000206F6E204E65696768626F75720053686B
:102AF0006F77204C6F63616C205265636F726473F3
:102B0000005265736574204C6F63616C2053746F61
:102B100072616765004E65772047726F7570204956
:102B2000443A20002564004E6577206E6F6465206E
:102B300049442028312D3235293A00535953455202
:102B4000523A2025782C202573007561720075613A
:102B500069005069634F532076352E342F5047312A
:102B60003830323232412D4343313335305F4C41BE
:102B7000554E4348584C2C20284329204F6C736FE6
:102B80006E657420436F6D6D756E69636174696FF6
:102B90006E732C20323030322D32303138004C659B
:102BA00066746F7665722052414D3A20256420622A
:102BB0007974657300737400806030008060380041
:102BC000106018000F401020004069300040713044
:102BD0000860B8000040C9600040D1600040D96082
:102BE0000040E16080630900806BF100002040201C
:102BF00080604800806050000060A00073746174C1
:102C000065007377006164647600696F006D616CC4
:102C100031006D616C67006B7069006D616C630001
:102C20003031323334353637383941424344454602
:082C3000999A9B9C000D000E17
:020000021000EC
:10FFA80000008001100088FFFDFF58003AFFBFF3F2
:10FFB800FFFFFFFFFFFFFFFFFFFFFFFFFFFFFFFF49
:10FFC800FFFFFFFFFFFFFFFFFFFFFFFFFFFFFFFF39
:10FFD800FFFFFF00FFFFFFFF00FFFFFFC500C5FF9A
:10FFE800000000FF00000000FFFFFFFFFFFFFFFF12
:08FFF800FFFFFFFFFFFFFFFF09
:040000030000134D99
:00000001FF
